:030000000201EF0B
:0C01EF00787FE4F6D8FD75810E02020650
:1001690020B3197F0A7E0012014B20B30F050EE55B
:0D0179000EC394034003E4F50E20B3FD22F5
:10009C00750D40750E0120B1191201E1E4F50CE566
:1000AC000CC3950D50ED12010F20B202801A050CF5
:1000BC0080ED20B01C1201E1E4F50CE50CC3950DAC
:1000CC0050D112012D20B2051201E180C6050C8021
:0600DC00EA7590F080BD02
:0B01FB001201C2750E021200E280F833
:0B02060012016912009C1201FB80F540
:1001B200080C0406020301090901030206040C08E3
:10018600EF1FAA0670011E4A600BE4FDEDC39473CF
:0501960050EE0D80F7A2
:01019B002241
:0E01D200E4FFFE0FBF00010EEF64394E70F522
:0101E00022FC
:0D01E100E4FD1201D2B2950DBD64F7D29578
:0101EE0022EE
:10010F00E4FC30B218E4FBEB9001B293F5907F0161
:0D011F007E001201860BBB08EE0CBC08E54B
:01012C0022B0
:10012D00E4FC30B218E4FBEB9001BA93F5907F023A
:0D013D007E001201860BBB08EE0CBC08E52D
:01014A002292
:10014B00D3EF9400EE940040147D7D7C00ED1D7088
:0D015B00011CED4C70F7EF1F70E61E80E3F5
:010168002274
:1001C200758901758CFF758A06D2AFD2A9D28C22AD
:1000E20020B1137F0A7E0012014B20B109750A006C
:1000F200750B0120B1FD20B0137F0A7E0012014B67
:0D01020020B009750A00750B0920B0FD2220
:03000B0002000EE2
:10000E00C0E0C0F0C083C082C0D075D000C000C0B8
:10001E0001C002C003C004C005C006C007758CFF36
:10002E00758A06050BE50B7002050AD3940AE50ADC
:10003E0094005004D2B5803BD3E50B940AE50A94A4
:10004E00004018AE0AAF0BE4FCFD7B807A387901D4
:10005E00F8D312019C4004C2B58018AE0AAF0BE46F
:10006E00FCFD7B807A387901F8C312019C7004F58F
:10007E000AF50BD007D006D005D004D003D002D09D
:0E008E0001D000D0D0D082D083D0F0D0E032AC
:10019C00EB9FF5F0EA9E42F0E99D42F0EC6480C8DA
:0601AC0064809845F0227A
:00000001FF
