:03000000020C17D8
:0C0C1700787FE4F6D8FD758125020C5EA4
:100CA300C2A7C2A58F807F017E00120CB6D2A77F98
:030CB300057E00BB
:100CB600D3EF9400EE940040217DC77C007B017A3F
:100CC60000EB1B70011AEB4A70F7ED1D70011CED6D
:0A0CD6004C70EAEF1F70D91E80D6A3
:010CE00022F1
:080DC800C2A6120CA3C2A7226F
:080DD000D2A6120CA3C2A72257
:100D72007F38120DC87F0C120DC87F06120DC87F76
:090D820001120DC87F80020DC8AA
:0D0DB0006672657175656E743A4D487A0083
:040DD800022203E808
:0B0DBD00C2A2C2A1C2A0D2A0C2A0220C
:100D8B00C2A2C2A1C2A0D2A0C2A0C2A2D2A2C2A21F
:070D9B00C2A1D2A1C2A122F6
:020B6D008F08EF
:100B6F0075146E75131275120375114CAF0CAE0B15
:100B7F00AD0AAC097B007A24797478491209098F80
:100B8F000C8E0B8D0A8C09AB14AA13A912A8111283
:100B9F0008008F0C8E0B8D0A8C091209A68F108EF0
:100BAF000F8D0E8C0DAF088F90D2A2C2A2AF10AED8
:100BBF000FAD0EAC0D7818120A358F90D2A2C2A2CB
:100BCF00AF10AE0FAD0EAC0D7810120A358F90D25C
:100BDF00A2C2A2AF10AE0FAD0EAC0D7808120A353F
:100BEF008F90D2A2C2A2AF10AE0FAD0EAC0D790096
:100BFF007800120A358F108E0F8D0E8C0D8F90D2BC
:070C0F00A2C2A2D2A1C2A102
:010C160022BB
:020A49008F1507
:100A4B0075216E752012751F03751E4CAF19AE18EC
:100A5B00AD17AC167B007A24797478491209098F8B
:100A6B00198E188D178C16AB21AA20A91FA81E1240
:100A7B0008008F198E188D178C161209A68F1D8ED4
:100A8B001C8D1B8C1A79007800120A358F1D8E1C59
:100A9B008D1B8C1AE4FEEEC3940874809480501462
:100AAB00A806EF088002C313D8FC139297D2A2C2F8
:100ABB00A20E80E2AF1DAE1CAD1BAC1A7808120A59
:100ACB0035E4FEEEC39408748094805014A806EFAE
:100ADB00088002C313D8FC139297D2A2C2A20E8035
:100AEB00E2AF1DAE1CAD1BAC1A7810120A35E4FE3A
:100AFB00EEC39408748094805014A806EF0880020B
:100B0B00C313D8FC139297D2A2C2A20E80E2AF1DE0
:100B1B00AE1CAD1BAC1A7818120A35E4FEEEC3946A
:100B2B0008748094805014A806EF088002C313D871
:100B3B00FC139297D2A2C2A20E80E2AF15E4FEEE96
:100B4B00C39408748094805014A806EF088002C3E5
:100B5B0013D8FC139297D2A2C2A20E80E2D2A1C2EA
:010B6B00A1E8
:010B6C002266
:100D19007F80120DC8E4F524F52574B02525F582E8
:100D2900740D3524F583E493FF120DD00525E525CF
:0D0D390070020524C3940FE524940040DDF2
:010D4600228A
:100D4700D3EF9400EE940040217DC77C007B017AAD
:100D570000EB1B70011AEB4A70F7ED1D70011CEDDB
:0A0D67004C70EAEF1F70D91E80D611
:010D7100225F
:100CE10020B1187F0A7E00120D4720B10E746425D1
:100CF10023F523E43522F52220B1FD20B0197F0A26
:100D01007E00120D4720B00F749C2523F52374FF3C
:080D11003522F52220B0FD227D
:0E0DA200120D72120D19120CE112000080F5F4
:10080000EC4D6011E8497017ED33EC3304600DE4F2
:10081000FCFFFEFD22E933E8330470F8020A1212ED
:1008200009DD58046009E4CC2481500628500902EF
:100830000A1C284003020A19C0E0EB4A7044B98040
:1008400006D0E0FB020A08EF4E701CBD8008EBFFEB
:10085000EAFEE9FD80EBE98DF0A4FEE5F00208E98F
:10086000E9CDF9EAFEEBFFEF89F0A4FCE5F0CE89D3
:10087000F0A42EFFE435F0CD89F0A42DFEE435F090
:100880008067EF4E7005BD80D780C3EF8BF0A4ACBE
:10089000F0EE8BF0A42CFCE435F0F8EF8AF0A42CF9
:1008A000E5F038FCE433CB8DF0A42CFCE5F03BF80C
:1008B000EE8AF0A42CFCE5F038F8E433CF89F0A4FC
:1008C0002CFCE5F038CF3400CE89F0A42FFFE5F002
:1008D0003EFEE433C98DF0A42EFEE5F039CD8AF05A
:1008E000A42FFFE5F03EFEE43DFD33D0E0FB5007D2
:1008F0000BBB000F020A1CEC2CFCEF33FFEE33FEA7
:06090000ED33FD0209F4D5
:10090600020A1CEC5D046005E859047003020A1231
:100916001209DD580460F6EC4860F2EC7004FDFE46
:10092600FF22C860DB2481C85009C39860025006C4
:10093600020A199850CAF582E9294B4A7005AB821A
:10094600020A0875F0007C1A7880C3EF9BEE9AEDD8
:1009560099400DC3EF9BFFEE9AFEED99FDE842F03C
:10096600DC23ACF0D0E0FFD0E0FED0E0FDAB82208F
:10097600E7101BEB60BAEC2CFCEF33FFEE33FEED19
:1009860033FD0209F4E803F830E705C0F075F0001E
:10099600EF2FFFEE33FEED33FD40B830E7C280AAFD
:1009A600EDD2E7CD33EC3392D524814006E4FFFE49
:1009B600FDFC22FCE4CFCECDCC24E0501174FF80A8
:1009C600EDC3CC13CCCD13CDCE13CECF13CF047045
:0709D600F030D5DE020A2714
:1009DD00E9D2E7C933E833F892D5EDD2E7CD33EC60
:0709ED0033FC5002B2D522D9
:1009F400EC30E7100FBF000C0EBE00080DBD000464
:100A04000BEB6014A2D5EB13FCED92E7FD2274FF0F
:100A1400FCFDFEFF22E480F8A2D574FF13FC7D8068
:030A2400E480EF7C
:100C2300020DA2E493A3F8E493A34003F68001F238
:100C330008DFF48029E493A3F85407240CC8C333D2
:100C4300C4540F4420C8834004F456800146F6DFA1
:100C5300E4800B0102040810204080900DD8E47E4C
:100C6300019360BCA3FF543F30E509541FFEE49396
:100C7300A360010ECF54C025E060A840B8E493A35D
:100C8300FAE493A3F8E493A3C8C582C8CAC583CA88
:100C9300F0A3C8C582C8CAC583CADFE9DEE780BE40
:010DDC000016
:0E0A2700C3E49FFFE49EFEE49DFDE49CFC22E0
:100A3500E86010ECA2E713FCED13FDEE13FEEF13D7
:040A4500FFD8F022C4
:00000001FF
