:0300000002000EED
:0C000E00787FE4F6D8FD75810D020055E6
:0A022F003F065B4F666D7D077F6F91
:03000700010D00E8
:10019200C294120220E4F50DD29412020BC29430E2
:1001A20095FDD28C2095FDC28CAF8CAD8AEFFEF509
:1001B2000AEDF50BFF7C007D3A12009A8E0A8F0B36
:1001C200750800750905C3E5086480948040C3AFD3
:1001D2000BAE0A120125E509150970EA150880E639
:03000B00020003ED
:04000300750D013244
:0B01E20093F580D2A6C2A67F027E002B
:1001ED00D3EF9400EE940040147D717C00ED1D70F2
:0D01FD00011CED4C70F7EF1F70E61E80E353
:01020A0022D1
:0F022000758901E4F58CF58AC28DD2A9D2AF227F
:10012500AB07AA06BAFF10BBFF0D7580FED2A7C2AA
:07013500A7900237E480529D
:10013C007C007D64AF03AE021200EF8F0C7580FE65
:10014C00D2A7C2A7E50C90022F1201E27C007D0A17
:10015C00AF03AE021200EF7C007D0A1200EF8D0C93
:10016C007580FDD2A7C2A7E50C1201E2AE02AF0367
:10017C007C007D0A1200EF8D0C7580FBD2A7C2A704
:05018C00E50C1201E288
:01019100224B
:10020B0000000000000000000000000000000000E3
:05021B000000000022BC
:10001A00020192E493A3F8E493A34003F68001F269
:10002A0008DFF48029E493A3F85407240CC8C333E7
:10003A00C4540F4420C8834004F456800146F6DFB6
:10004A00E4800B0102040810204080900007E47E3F
:10005A00019360BCA3FF543F30E509541FFEE493AB
:10006A00A360010ECF54C025E060A840B8E493A372
:10007A00FAE493A3F8E493A3C8C582C8CAC583CA9D
:10008A00F0A3C8C582C8CAC583CADFE9DEE780BE55
:01000A0000F5
:10009A00BC000BBE0029EF8DF084FFADF022E4CC4A
:1000AA00F875F008EF2FFFEE33FEEC33FCEE9DEC13
:1000BA00984005FCEE9DFE0FD5F0E9E4CEFD22ED59
:1000CA00F8F5F0EE8420D21CFEADF075F008EF2FA3
:1000DA00FFED33FD4007985006D5F0F222C398FD94
:0500EA000FD5F0EA2231
:1000EF00C2D5EC30E709B2D5E4C39DFDE49CFCEE2C
:1000FF0030E715B2D5E4C39FFFE49EFE12009AC30A
:10010F00E49DFDE49CFC800312009A30D507C3E404
:06011F009FFFE49EFE229A
:00000001FF
