:03000000020939B9
:0C093900787FE4F6D8FD75810B020917E9
:1008F900D3EF9400EE940040147D7D7C00ED1D70D3
:0D090900011CED4C70F7EF1F70E61E80E33F
:0109160022BE
:0F092A00758901758CFE758A3375A882D28C226F
:1008550020B1277F0A7E001208F920B11D0509E5A0
:100865000970020508E4F50AF50BE5096406450873
:100875007005F50875090530B1FD20B0257F0A7EA4
:10088500001208F920B01BE509150970021508E4E6
:10089500F50AF50BE50945087005F50875090130F8
:0308A500B0FD2281
:10091700750800750901E4F50AF50B12092A120892
:030927005580FBFD
:03000B000208A840
:1008A800C0E0C0F0C0D075D000C000C004C005C012
:1008B80006C007758CFE758A33C3E50B9509E50AF2
:1008C80095085004D2908002C290050BE50B700287
:1008D800050AAE0AFF7C007D281208008C0A8D0BE1
:1008E800D007D006D005D004D000D0D0D0F0D0E0CA
:0108F80032CD
:10080000BC000BBE0029EF8DF084FFADF022E4CCDC
:10081000F875F008EF2FFFEE33FEEC33FCEE9DECA5
:10082000984005FCEE9DFE0FD5F0E9E4CEFD22EDEB
:10083000F8F5F0EE8420D21CFEADF075F008EF2F35
:10084000FFED33FD4007985006D5F0F222C398FD26
:050850000FD5F0EA22C3
:00000001FF
