:0300000002000EED
:0C000E00787FE4F6D8FD75810F020055E4
:0A0285003F065B4F666D7D077F6F3B
:03000700010F00E6
:1001FC008E0D8F0E7F047E001202227485250EF563
:10020C00827402350DF583E493F5807F327E001203
:06021C000243E4F580221C
:1001AC00C294120276E4F50FD294120261C294301A
:1001BC0095FDD28C2095FDC28CAF8CAD8AEFFEF5EF
:1001CC000AEDF50BFF7C007D3A12009A8E0A8F0B1C
:1001DC00750800750905C3E5086480948040C3AFB9
:1001EC000BAE0A120125E509150970EA150880E61F
:03000B00020003ED
:04000300750F013242
:10024300D3EF9400EE940040147D717C00ED1D709B
:0D025300011CED4C70F7EF1F70E61E80E3FC
:01026000227B
:0F027600758901E4F58CF58AC28DD2A9D2AF2229
:10022200EE701DEF24FE600B14600F24027011C2E9
:10023200A28002D2A2C2A3C2A422C2A2D2A3C2A4F8
:010242002299
:10012500AB07AA06BAFF14BBFF11E4FFFE120222B9
:0B01350090028DE493F5807F648065EC
:100140007C007D64AF03AE021200EF8F0C7F037E54
:1001500000120222E50C90028593F5807F0A1202BC
:1001600043E4F580FC7D0AAF03AE021200EF7C0091
:100170007D0A1200EF8D0C7F027E00120222E50C38
:1001800093F5807F0A120243E4F580AE02AF03FCD0
:100190007D0A1200EF8D0C7F017E00120222E50C19
:0B01A00093F5807F0A120243E4F58013
:0101AB002231
:10026100000000000000000000000000000000008D
:05027100000000002266
:10001A000201ACE493A3F8E493A34003F68001F24F
:10002A0008DFF48029E493A3F85407240CC8C333E7
:10003A00C4540F4420C8834004F456800146F6DFB6
:10004A00E4800B0102040810204080900007E47E3F
:10005A00019360BCA3FF543F30E509541FFEE493AB
:10006A00A360010ECF54C025E060A840B8E493A372
:10007A00FAE493A3F8E493A3C8C582C8CAC583CA9D
:10008A00F0A3C8C582C8CAC583CADFE9DEE780BE55
:01000A0000F5
:10009A00BC000BBE0029EF8DF084FFADF022E4CC4A
:1000AA00F875F008EF2FFFEE33FEEC33FCEE9DEC13
:1000BA00984005FCEE9DFE0FD5F0E9E4CEFD22ED59
:1000CA00F8F5F0EE8420D21CFEADF075F008EF2FA3
:1000DA00FFED33FD4007985006D5F0F222C398FD94
:0500EA000FD5F0EA2231
:1000EF00C2D5EC30E709B2D5E4C39DFDE49CFCEE2C
:1000FF0030E715B2D5E4C39FFFE49EFE12009AC30A
:10010F00E49DFDE49CFC800312009A30D507C3E404
:06011F009FFFE49EFE229A
:00000001FF
